{
  "_format": "hh-sol-artifact-1",
  "contractName": "Vapour721AFactory",
  "sourceName": "contracts/Vapour721AFactory.sol",
  "abi": [
    {
      "inputs": [
        {
          "internalType": "address",
          "name": "vmStateBuilder_",
          "type": "address"
        }
      ],
      "stateMutability": "nonpayable",
      "type": "constructor"
    },
    {
      "anonymous": false,
      "inputs": [
        {
          "indexed": false,
          "internalType": "address",
          "name": "sender",
          "type": "address"
        },
        {
          "indexed": false,
          "internalType": "address",
          "name": "implementation",
          "type": "address"
        }
      ],
      "name": "Implementation",
      "type": "event"
    },
    {
      "anonymous": false,
      "inputs": [
        {
          "indexed": false,
          "internalType": "address",
          "name": "sender",
          "type": "address"
        },
        {
          "indexed": false,
          "internalType": "address",
          "name": "child",
          "type": "address"
        }
      ],
      "name": "NewChild",
      "type": "event"
    },
    {
      "inputs": [
        {
          "internalType": "bytes",
          "name": "data_",
          "type": "bytes"
        }
      ],
      "name": "createChild",
      "outputs": [
        {
          "internalType": "address",
          "name": "",
          "type": "address"
        }
      ],
      "stateMutability": "nonpayable",
      "type": "function"
    },
    {
      "inputs": [
        {
          "components": [
            {
              "internalType": "string",
              "name": "name",
              "type": "string"
            },
            {
              "internalType": "string",
              "name": "symbol",
              "type": "string"
            },
            {
              "internalType": "string",
              "name": "baseURI",
              "type": "string"
            },
            {
              "internalType": "uint256",
              "name": "supplyLimit",
              "type": "uint256"
            },
            {
              "internalType": "address",
              "name": "recipient",
              "type": "address"
            },
            {
              "internalType": "address",
              "name": "owner",
              "type": "address"
            },
            {
              "internalType": "address",
              "name": "admin",
              "type": "address"
            },
            {
              "internalType": "uint256",
              "name": "royaltyBPS",
              "type": "uint256"
            },
            {
              "internalType": "address",
              "name": "currency",
              "type": "address"
            },
            {
              "components": [
                {
                  "internalType": "bytes[]",
                  "name": "sources",
                  "type": "bytes[]"
                },
                {
                  "internalType": "uint256[]",
                  "name": "constants",
                  "type": "uint256[]"
                }
              ],
              "internalType": "struct StateConfig",
              "name": "vmStateConfig",
              "type": "tuple"
            }
          ],
          "internalType": "struct InitializeConfig",
          "name": "initializeConfig_",
          "type": "tuple"
        }
      ],
      "name": "createChildTyped",
      "outputs": [
        {
          "internalType": "contract Vapour721A",
          "name": "",
          "type": "address"
        }
      ],
      "stateMutability": "nonpayable",
      "type": "function"
    },
    {
      "inputs": [
        {
          "internalType": "address",
          "name": "maybeChild_",
          "type": "address"
        }
      ],
      "name": "isChild",
      "outputs": [
        {
          "internalType": "bool",
          "name": "",
          "type": "bool"
        }
      ],
      "stateMutability": "view",
      "type": "function"
    }
  ],
  "bytecode": "0x60a060405234801561001057600080fd5b506040516161af3803806161af83398101604081905261002f916100db565b60016000908155604051610042906100ce565b604051809103906000f08015801561005e573d6000803e3d6000fd5b50604080513381526001600160a01b03831660208201529192507f7fac34ecf0b1b374cd9659e3d17db602659d53f1162b1f20142e6c02694aed70910160405180910390a16001600160a01b03908116608052600280546001600160a01b0319169290911691909117905561010b565b61534c80610e6383390190565b6000602082840312156100ed57600080fd5b81516001600160a01b038116811461010457600080fd5b9392505050565b608051610d3d61012660003960006102470152610d3d6000f3fe608060405234801561001057600080fd5b50600436106100415760003560e01c80632ea72a49146100465780639372c8bf14610076578063fc91a89714610089575b600080fd5b610059610054366004610430565b6100c5565b6040516001600160a01b0390911681526020015b60405180910390f35b6100596100843660046104bc565b6101f7565b6100b5610097366004610521565b6001600160a01b031660009081526001602052604090205460ff1690565b604051901515815260200161006d565b60006002600054141561011f5760405162461bcd60e51b815260206004820152601f60248201527f5265656e7472616e637947756172643a207265656e7472616e742063616c6c0060448201526064015b60405180910390fd5b6002600090815561012f83610227565b6001600160a01b03811660009081526001602052604090205490915060ff161561018d5760405162461bcd60e51b815260206004820152600f60248201526e111554131250d0551157d0d2125311608a1b6044820152606401610116565b6001600160a01b038116600081815260016020818152604092839020805460ff19169092179091558151338152908101929092527f7da70c4e5387d7038610b79ca7d304caaef815826e51e67cf247135387a79bce910160405180910390a1600160005592915050565b60006102218260405160200161020d91906106d1565b6040516020818303038152906040526100c5565b92915050565b6000808280602001905181019061023e9190610a0a565b9050600061026b7f00000000000000000000000000000000000000000000000000000000000000006102db565b600254604051634495923960e01b81529192506001600160a01b03808416926344959239926102a1928792911690600401610c13565b600060405180830381600087803b1580156102bb57600080fd5b505af11580156102cf573d6000803e3d6000fd5b50929695505050505050565b6000604051733d602d80600a3d3981f3363d3d373d3d3d363d7360601b81528260601b60148201526e5af43d82803e903d91602b57fd5bf360881b60288201526037816000f09150506001600160a01b0381166103735760405162461bcd60e51b8152602060048201526016602482015275115490cc4c4d8dce8818dc99585d194819985a5b195960521b6044820152606401610116565b919050565b634e487b7160e01b600052604160045260246000fd5b604080519081016001600160401b03811182821017156103b0576103b0610378565b60405290565b60405161014081016001600160401b03811182821017156103b0576103b0610378565b604051601f8201601f191681016001600160401b038111828210171561040157610401610378565b604052919050565b60006001600160401b0382111561042257610422610378565b50601f01601f191660200190565b60006020828403121561044257600080fd5b81356001600160401b0381111561045857600080fd5b8201601f8101841361046957600080fd5b803561047c61047782610409565b6103d9565b81815285602083850101111561049157600080fd5b81602084016020830137600091810160200191909152949350505050565b6001600160a01b03169052565b6000602082840312156104ce57600080fd5b81356001600160401b038111156104e457600080fd5b820161014081850312156104f757600080fd5b9392505050565b6001600160a01b038116811461051357600080fd5b50565b8035610373816104fe565b60006020828403121561053357600080fd5b81356104f7816104fe565b6000808335601e1984360301811261055557600080fd5b83016020810192503590506001600160401b0381111561057457600080fd5b80360383131561058357600080fd5b9250929050565b81835281816020850137506000828201602090810191909152601f909101601f19169091010190565b60008235603e198336030181126105c957600080fd5b90910192915050565b6000808335601e198436030181126105e957600080fd5b83016020810192503590506001600160401b0381111561060857600080fd5b8060051b360383131561058357600080fd5b60006040830161062a83846105d2565b604086528281845260608701905060608260051b88010193508260005b8381101561068457888603605f19018352610662828661053e565b61066d88828461058a565b975050506020928301929190910190600101610647565b505050505061069660208401846105d2565b85830360208701528083526001600160fb1b038111156106b557600080fd5b60051b8082602085013760009201602001918252509392505050565b6020815260006106e1838461053e565b6101408060208601526106f96101608601838561058a565b9250610708602087018761053e565b9250601f198087860301604088015261072285858461058a565b9450610731604089018961053e565b945091508087860301606088015261074a85858461058a565b94506060880135608088015261076260808901610516565b935061077160a08801856104af565b61077d60a08901610516565b935061078c60c08801856104af565b61079860c08901610516565b93506107a760e08801856104af565b610100935060e0880135848801526107c0848901610516565b935061012091506107d3828801856104af565b6107df828901896105b3565b93508087860301838801525050506107f7828261061a565b95945050505050565b60005b8381101561081b578181015183820152602001610803565b8381111561082a576000848401525b50505050565b600061083e61047784610409565b905082815283838301111561085257600080fd5b6104f7836020830184610800565b600082601f83011261087157600080fd5b6104f783835160208501610830565b8051610373816104fe565b60006001600160401b038211156108a4576108a4610378565b5060051b60200190565b600082601f8301126108bf57600080fd5b815160206108cf6104778361088b565b82815260059290921b840181019181810190868411156108ee57600080fd5b8286015b8481101561090957805183529183019183016108f2565b509695505050505050565b6000604080838503121561092757600080fd5b61092f61038e565b83519092506001600160401b038082111561094957600080fd5b818501915085601f83011261095d57600080fd5b8151602061096d6104778361088b565b82815260059290921b8401810191818101908984111561098c57600080fd5b8286015b848110156109d8578051868111156109a85760008081fd5b8701603f81018c136109ba5760008081fd5b6109ca8c868301518b8401610830565b845250918301918301610990565b50875250868101519450828511156109ef57600080fd5b6109fb888689016108ae565b81870152505050505092915050565b600060208284031215610a1c57600080fd5b81516001600160401b0380821115610a3357600080fd5b908301906101408286031215610a4857600080fd5b610a506103b6565b825182811115610a5f57600080fd5b610a6b87828601610860565b825250602083015182811115610a8057600080fd5b610a8c87828601610860565b602083015250604083015182811115610aa457600080fd5b610ab087828601610860565b60408301525060608301516060820152610acc60808401610880565b6080820152610add60a08401610880565b60a0820152610aee60c08401610880565b60c082015260e083015160e0820152610100610b0b818501610880565b908201526101208381015183811115610b2357600080fd5b610b2f88828701610914565b918301919091525095945050505050565b60008151808452610b58816020860160208601610800565b601f01601f19169290920160200192915050565b60006040830182516040855281815180845260608701915060608160051b88010193506020808401935060005b82811015610bc757605f19898703018452610bb5868651610b40565b95509381019392810192600101610b99565b508681015188860389830152805180875290820195600095508201935091505b81841015610c075784518352938401936001939093019291820191610be7565b50909695505050505050565b6040815260008351610140806040850152610c32610180850183610b40565b91506020860151603f1980868503016060870152610c508483610b40565b93506040880151915080868503016080870152610c6d8483610b40565b9350606088015160a087015260808801519150610c8d60c08701836104af565b60a08801519150610ca160e08701836104af565b60c08801519150610100610cb7818801846104af565b60e089015192506101208381890152818a01519350610cd8858901856104af565b890151878603909201610160880152509150610cf690508282610b6c565b925050506104f760208301846104af56fea2646970667358221220c9dfe6cc182826554c9dee239865281e07daba313dc9c040197a1e334dab459e64736f6c634300080a0033608060405234801561001057600080fd5b5061532c806100206000396000f3fe60806040526004361061017e5760003560e01c806301ffc9a71461018357806305dc5e82146101b857806306fdde03146101ed578063081812fc1461020f578063095ea7b31461023c57806318160ddd1461025e57806323b872dd14610281578063248a9ca3146102a15780632a55205a146102c15780632f2ff15d146102ef57806336568abe1461030f5780633bbed4a01461032f5780633ccfd60b1461034f57806342842e0e1461036457806342966c681461038457806344959239146103a45780636352211e146103c457806370a08231146103e4578063715018a6146104045780638da5cb5b1461041957806391d148541461042e57806393669a151461044e57806395d89b4114610461578063a217fddf14610476578063a22cb4651461048b578063b4da5e9a146104ab578063b88d4fde146104be578063c87b56dd146104de578063d547741f146104fe578063e0419ae31461051e578063e985e9c51461054e578063f2cd6c081461056e578063f2fde38b14610583575b600080fd5b34801561018f57600080fd5b506101a361019e3660046140c6565b6105a3565b60405190151581526020015b60405180910390f35b3480156101c457600080fd5b506101d86101d3366004614108565b6105b4565b604080519283526020830191909152016101af565b3480156101f957600080fd5b506102026106b9565b6040516101af919061418c565b34801561021b57600080fd5b5061022f61022a36600461419f565b610754565b6040516101af91906141c5565b34801561024857600080fd5b5061025c610257366004614108565b6107a1565b005b34801561026a57600080fd5b5061027361084f565b6040519081526020016101af565b34801561028d57600080fd5b5061025c61029c3660046141d9565b61086f565b3480156102ad57600080fd5b506102736102bc36600461419f565b610a5c565b3480156102cd57600080fd5b506102e16102dc36600461421a565b610a71565b6040516101af92919061423c565b3480156102fb57600080fd5b5061025c61030a366004614255565b610ad1565b34801561031b57600080fd5b5061025c61032a366004614255565b610af2565b34801561033b57600080fd5b5061025c61034a366004614285565b610b70565b34801561035b57600080fd5b5061025c610c84565b34801561037057600080fd5b5061025c61037f3660046141d9565b610db8565b34801561039057600080fd5b5061025c61039f36600461419f565b610dd3565b3480156103b057600080fd5b5061025c6103bf366004614518565b610de1565b3480156103d057600080fd5b5061022f6103df36600461419f565b6112a9565b3480156103f057600080fd5b506102736103ff366004614285565b6112b4565b34801561041057600080fd5b5061025c61131c565b34801561042557600080fd5b5061022f611330565b34801561043a57600080fd5b506101a3610449366004614255565b61133f565b61025c61045c36600461465f565b61136a565b34801561046d57600080fd5b506102026113ad565b34801561048257600080fd5b50610273600081565b34801561049757600080fd5b5061025c6104a63660046146a8565b6113c5565b61025c6104b93660046146d6565b61146c565b3480156104ca57600080fd5b5061025c6104d93660046146e8565b611484565b3480156104ea57600080fd5b506102026104f936600461419f565b6114ce565b34801561050a57600080fd5b5061025c610519366004614255565b611528565b34801561052a57600080fd5b50610533611544565b604080518251815260209283015192810192909252016101af565b34801561055a57600080fd5b506101a3610569366004614753565b61156d565b34801561057a57600080fd5b506102026115aa565b34801561058f57600080fd5b5061025c61059e366004614285565b6115e1565b60006105ae82611657565b92915050565b60cc5460009081906001600160a01b03166106085760405162461bcd60e51b815260206004820152600f60248201526e1393d517d253925512505312569151608a1b60448201526064015b60405180910390fd5b600061061261168c565b60408051818152606081018252919250600091906020820181803683375050506020810187905260408101869052905061064e818360016116b7565b506020820151825161066290600290614797565b81518110610672576106726147ae565b60200260200101518260200151600184600001516106909190614797565b815181106106a0576106a06147ae565b6020026020010151809450819550505050509250929050565b60606106c3611918565b60020180546106d1906147c4565b80601f01602080910402602001604051908101604052809291908181526020018280546106fd906147c4565b801561074a5780601f1061071f5761010080835404028352916020019161074a565b820191906000526020600020905b81548152906001019060200180831161072d57829003601f168201915b5050505050905090565b600061075f8261193c565b61077c576040516333d1c03960e21b815260040160405180910390fd5b610784611918565b60009283526006016020525060409020546001600160a01b031690565b60006107ac826112a9565b9050336001600160a01b038216146107e5576107c8813361156d565b6107e5576040516367d9dca160e11b815260040160405180910390fd5b826107ee611918565b6000848152600691909101602052604080822080546001600160a01b0319166001600160a01b0394851617905551849286811692908516917f8c5be1e5ebec7d5bd14f71427d1e84f3dd0314c0f7b2291e5b200ac8c7c3b9259190a4505050565b6000600161085b611918565b60010154610867611918565b540303919050565b600061087a82611985565b9050836001600160a01b0316816001600160a01b0316146108ad5760405162a1148160e81b815260040160405180910390fd5b6000806108b984611a14565b915091506108de81876108c93390565b6001600160a01b039081169116811491141790565b610909576108ec863361156d565b61090957604051632ce44b5f60e11b815260040160405180910390fd5b6001600160a01b03851661093057604051633a954ecd60e21b815260040160405180910390fd5b61093d8686866001611a3c565b801561094857600082555b610950611918565b6001600160a01b038716600090815260059190910160205260409020805460001901905561097c611918565b6001600160a01b038616600090815260059190910160205260409020805460010190556109ad85600160e11b611b32565b6109b5611918565b60008681526004919091016020526040902055600160e11b8316610a2457600184016109df611918565b60008281526004919091016020526040902054610a22576109fe611918565b548114610a225783610a0e611918565b600083815260049190910160205260409020555b505b83856001600160a01b0316876001600160a01b03166000805160206152b783398151915260405160405180910390a45b505050505050565b60009081526097602052604090206001015490565b60ce5460009081906001600160a01b0316610a9b57505060ce546001600160a01b03166000610aca565b60ce5460cf546001600160a01b039091169061271090610abb90866147f9565b610ac5919061482e565b915091505b9250929050565b610ada82610a5c565b610ae381611b47565b610aed8383611b51565b505050565b6001600160a01b0381163314610b625760405162461bcd60e51b815260206004820152602f60248201527f416363657373436f6e74726f6c3a2063616e206f6e6c792072656e6f756e636560448201526e103937b632b9903337b91039b2b63360891b60648201526084016105ff565b610b6c8282611bd7565b5050565b60ce546001600160a01b0316331480610b92575060ce546001600160a01b0316155b610bcf5760405162461bcd60e51b815260206004820152600e60248201526d524543495049454e545f4f4e4c5960901b60448201526064016105ff565b6001600160a01b0381163b158015610bef57506001600160a01b03811615155b610c2e5760405162461bcd60e51b815260206004820152601060248201526f24a72b20a624a22fa0a2222922a9a99760811b60448201526064016105ff565b60ce80546001600160a01b0319166001600160a01b0383161790556040517fff2d07bd188a9eb41acbc4a7db39e18956c95ab7f54f434d97849bf6206e577c90610c799083906141c5565b60405180910390a150565b600060cb5411610cc25760405162461bcd60e51b815260206004820152600960248201526816915493d7d195539160ba1b60448201526064016105ff565b60cb5460ca80548201908190556040517ff279e6a1f5e320cca91135676d9cb6e44ca8a08c0b88342bcdb1144f6511b56892610cff923392614842565b60405180910390a160cd546001600160a01b0316610d355760ce5460cb54610d30916001600160a01b031690611c3e565b610db1565b60cd5460ce5460cb5460405163a9059cbb60e01b81526001600160a01b039384169363a9059cbb93610d6c9391169160040161423c565b6020604051808303816000875af1158015610d8b573d6000803e3d6000fd5b505050506040513d601f19601f82011682018060405250810190610daf9190614863565b505b600060cb55565b610aed83838360405180602001604052806000815250611484565b610dde816001611d54565b50565b610de9611ec2565b54610100900460ff16610e0857610dfe611ec2565b5460ff1615610e0c565b303b155b610e665760405162461bcd60e51b81526020600482015260376024820152600080516020615277833981519152604482015276081a5cc8185b1c9958591e481a5b9a5d1a585b1a5e9959604a1b60648201526084016105ff565b6000610e70611ec2565b54610100900460ff161590508015610ebc576001610e8c611ec2565b80549115156101000261ff00199092169190911790556001610eac611ec2565b805460ff19169115159190911790555b600054610100900460ff1615808015610edc5750600054600160ff909116105b80610ef65750303b158015610ef6575060005460ff166001145b610f595760405162461bcd60e51b815260206004820152602e60248201527f496e697469616c697a61626c653a20636f6e747261637420697320616c72656160448201526d191e481a5b9a5d1a585b1a5e995960921b60648201526084016105ff565b6000805460ff191660011790558015610f7c576000805461ff0019166101001790555b610f8e84600001518560200151611ee6565b610f96611f1d565b606084015160c95560408401518051610fb79160d091602090910190613fab565b5060e084015160cf819055612710116110005760405162461bcd60e51b815260206004820152600b60248201526a4d41585f524f59414c545960a81b60448201526064016105ff565b61100d8460800151610b70565b61101a8460a001516115e1565b60c08401516001600160a01b031661105e5760405162461bcd60e51b8152602060048201526007602482015266182fa0a226a4a760c91b60448201526064016105ff565b6110846000805160206152d7833981519152600080516020615297833981519152611f4c565b6110a06000805160206152978339815191528560c00151611b51565b61010084015160cd80546001600160a01b0319166001600160a01b039092169190911790556110cd61402f565b600081526110d961402f565b6001815260408051600280825260608201909252600091816020015b6110fd61402f565b8152602001906001900390816110f55790505090508281600081518110611126576111266147ae565b60200260200101819052508181600181518110611145576111456147ae565b60200260200101819052506000866001600160a01b03166317376ae0308a6101200151856040518463ffffffff1660e01b815260040161118793929190614947565b6000604051808303816000875af11580156111a6573d6000803e3d6000fd5b505050506040513d6000823e601f3d908101601f191682016040526111ce91908101906149ee565b90506111d981611f9f565b60cc80546001600160a01b0319166001600160a01b03929092169190911790556040517f168856e8d0cd76c881da00ff445e08cae1ac9b23f6b406e769e84c4f0e9905e19061122b908a908a90614a5b565b60405180910390a150505050801561127d576000805461ff0019169055604051600181527f7f26b83ff96e1f2b6a682f133852f6798a09c465da95921460cefb38474024989060200160405180910390a15b508015610aed57600061128e611ec2565b80549115156101000261ff0019909216919091179055505050565b60006105ae82611985565b60006001600160a01b0382166112dd576040516323d3ad8160e21b815260040160405180910390fd5b6001600160401b036112ed611918565b6005016000846001600160a01b03166001600160a01b0316815260200190815260200160002054169050919050565b611324612004565b61132e6000612063565b565b6033546001600160a01b031690565b60009182526097602090815260408084206001600160a01b0393909316845291905290205460ff1690565b6000805160206152d783398151915261138281611b47565b6113a6856040518060600160405280878152602001868152602001858152506120b5565b5050505050565b60606113b7611918565b60030180546106d1906147c4565b6001600160a01b0382163314156113ef5760405163b06307db60e01b815260040160405180910390fd5b806113f8611918565b336000818152600792909201602090815260408084206001600160a01b03881680865290835293819020805460ff19169515159590951790945592518415158152919290917f17307eab39ab6107e8899845ad3d59bd9653f200f220920489ca2b5937696c31910160405180910390a35050565b610dde3361147f36849003840184614b4f565b6120b5565b61148f84848461086f565b6001600160a01b0383163b156114c8576114ab84848484612371565b6114c8576040516368d2bf6b60e11b815260040160405180910390fd5b50505050565b60606114d98261193c565b6114f657604051630a14c4b560e41b815260040160405180910390fd5b60d06115018361245a565b604051602001611512929190614bc6565b6040516020818303038152906040529050919050565b61153182610a5c565b61153a81611b47565b610aed8383611bd7565b6040805180820182526000808252602091820152815180830190925260c9825260039082015290565b6000611577611918565b6001600160a01b039384166000908152600791909101602090815260408083209490951682529290925250205460ff1690565b60606115b4612557565b6115bc612708565b6040516020016115cd929190614c88565b604051602081830303815290604052905090565b6115e9612004565b6001600160a01b03811661164e5760405162461bcd60e51b815260206004820152602660248201527f4f776e61626c653a206e6577206f776e657220697320746865207a65726f206160448201526564647265737360d01b60648201526084016105ff565b610dde81612063565b60006001600160e01b03198216637965db0b60e01b14806105ae57506301ffc9a760e01b6001600160e01b03198316146105ae565b61169461406c565b60cc546116b2906116ad906001600160a01b0316612765565b612775565b905090565b60208281015183516040850151848402018301518051606087015160a088015160009687968796879695948301938284019391820290920101906002015b848910156118fe576003890198508886015180601f1a975061ffff8160081c16985050600688101561189f578761173a578660200284015182526020820191506118b2565b6001881415611757576020870283015182526020820191506118b2565b60028814156117bb578c5187602002106117a45760405162461bcd60e51b815260206004820152600e60248201526d0869e9ca88ab0a8be988a9c8ea8960931b60448201526064016105ff565b866020026020018d015182526020820191506118b2565b60038814156117e05760006117ce611544565b518801548352506020909101906118b2565b60048814156117fc576117f58d8d848a61288b565b91506118b2565b60608761182a578c6040516020016118149190614cb7565b6040516020818303038152906040529050611889565b60018814156118435761183c8d6129cf565b9050611889565b600288141561185f576020808e01516040516118149201614d30565b6003881415611889578c516040805160208101929092520160405160208183030381529060405290505b8051156118995761189981612ad0565b506118b2565b876118ae888463ffffffff8416565b9250505b60208c0151518c5111156118f95760405162461bcd60e51b815260206004820152600e60248201526d535441434b5f4f564552464c4f5760901b60448201526064016105ff565b6116f5565b6020838303048c52509750505050505050505b9392505050565b7f2569078dfb4b0305704d3008e7403993ae9601b85f7ae5e742de3de8f8011c4090565b6000816001111580156119565750611952611918565b5482105b80156105ae5750600160e01b61196a611918565b60008481526004919091016020526040902054161592915050565b600081806001116119fb57611998611918565b548110156119fb5760006119aa611918565b600083815260049190910160205260409020549050600160e01b81166119f9575b80611911576119d8611918565b600019909201600081815260049390930160205260409092205490506119cb565b505b604051636f96cda160e11b815260040160405180910390fd5b6000806000611a21611918565b60009485526006016020525050604090912080549092909150565b6001600160a01b038416156114c8576000611a5561168c565b604080518181526060810182529192506000919060208201818036833750505060208101869052604081018590529050611a91818360006116b7565b50611ac8826020015160018460000151611aab9190614797565b81518110611abb57611abb6147ae565b6020026020010151612b13565b60208201518251611adb90600190614797565b81518110611aeb57611aeb6147ae565b6020026020010151600114610a545760405162461bcd60e51b815260206004820152600d60248201526c21a0a72a2faa2920a729a322a960991b60448201526064016105ff565b4260a01b176001600160a01b03919091161790565b610dde8133612b58565b611b5b828261133f565b610b6c5760008281526097602090815260408083206001600160a01b03851684529091529020805460ff19166001179055611b933390565b6001600160a01b0316816001600160a01b0316837f2f8788117e7eff1d82e926ec794901d17c78024a50270940304540a733656f0d60405160405180910390a45050565b611be1828261133f565b15610b6c5760008281526097602090815260408083206001600160a01b0385168085529252808320805460ff1916905551339285917ff6391f5c32d9c69d2a47ea670b442974b53935d1edc7fd64eb21e047a839171b9190a45050565b80471015611c8e5760405162461bcd60e51b815260206004820152601d60248201527f416464726573733a20696e73756666696369656e742062616c616e636500000060448201526064016105ff565b6000826001600160a01b03168260405160006040518083038185875af1925050503d8060008114611cdb576040519150601f19603f3d011682016040523d82523d6000602084013e611ce0565b606091505b5050905080610aed5760405162461bcd60e51b815260206004820152603a60248201527f416464726573733a20756e61626c6520746f2073656e642076616c75652c20726044820152791958da5c1a595b9d081b585e481a185d99481c995d995c9d195960321b60648201526084016105ff565b6000611d5f83611985565b905080600080611d6e86611a14565b915091508415611dae57611d838184336108c9565b611dae57611d91833361156d565b611dae57604051632ce44b5f60e11b815260040160405180910390fd5b611dbc836000886001611a3c565b8015611dc757600082555b6001600160801b03611dd7611918565b6001600160a01b0385166000908152600591909101602052604090208054919091019055611e0983600360e01b611b32565b611e11611918565b60008881526004919091016020526040902055600160e11b8416611e805760018601611e3b611918565b60008281526004919091016020526040902054611e7e57611e5a611918565b548114611e7e5784611e6a611918565b600083815260049190910160205260409020555b505b60405186906000906001600160a01b038616906000805160206152b7833981519152908390a4611eae611918565b600190810180549091019055505050505050565b7fee151c8401928dc223602bb187aff91b9a56c7cae5476ef1b3287b085a16c85f90565b611eee611ec2565b54610100900460ff16611f135760405162461bcd60e51b81526004016105ff90614d66565b610b6c8282612bbc565b600054610100900460ff16611f445760405162461bcd60e51b81526004016105ff90614da8565b61132e612c38565b6000611f5783610a5c565b600084815260976020526040808220600101859055519192508391839186917fbd79b86ffe0ab8e8776151514217cd7cacd52c909f66475c3af44e129f0b00ff9190a4505050565b600080611fca83604051602001611fb69190614df3565b604051602081830303815290604052612c68565b90508051602082016000f091506001600160a01b038216611ffe5760405163046a55db60e11b815260040160405180910390fd5b50919050565b3361200d611330565b6001600160a01b03161461132e5760405162461bcd60e51b815260206004820181905260248201527f4f776e61626c653a2063616c6c6572206973206e6f7420746865206f776e657260448201526064016105ff565b603380546001600160a01b038381166001600160a01b0319831681179093556040519116919082907f8be0079c531659141344cd1fd0a4f28419497f9722a3daafe3b4186f6b6457e090600090a35050565b80602001516000106120f55760405162461bcd60e51b8152602060048201526009602482015268305f4d494e494d554d60b81b60448201526064016105ff565b8060400151816020015111156121445760405162461bcd60e51b81526020600482015260146024820152731352539253555357d3d5915497d11154d254915160621b60448201526064016105ff565b600061214e612c7e565b60c95461215b9190614797565b90506000612176828460400151612c9190919063ffffffff16565b905060008061218586846105b4565b909250905060006121968385612c91565b905085602001518110156121e15760405162461bcd60e51b8152602060048201526012602482015271494e53554646494349454e545f53544f434b60701b60448201526064016105ff565b85518211156122225760405162461bcd60e51b815260206004820152600d60248201526c4d4158494d554d5f505249434560981b60448201526064016105ff565b600061222e82846147f9565b60cd549091506001600160a01b031661229d57803410156122855760405162461bcd60e51b8152602060048201526011602482015270125394d551919250d251539517d1955391607a1b60448201526064016105ff565b612298336122938334614797565b611c3e565b61231a565b60cd546040516323b872dd60e01b8152336004820152306024820152604481018390526001600160a01b03909116906323b872dd906064016020604051808303816000875af11580156122f4573d6000803e3d6000fd5b505050506040513d601f19601f820116820180604052508101906123189190614863565b505b60cb80548201905561232c8883612ca7565b7f1cbc5ab135991bd2b6a4b034a04aa2aa086dac1371cb9b16b8b5e2ed6b036bed88838360405161235f93929190614842565b60405180910390a15050505050505050565b604051630a85bd0160e11b81526000906001600160a01b0385169063150b7a02906123a6903390899088908890600401614e19565b6020604051808303816000875af19250505080156123e1575060408051601f3d908101601f191682019092526123de91810190614e56565b60015b61243c573d80801561240f576040519150601f19603f3d011682016040523d82523d6000602084013e612414565b606091505b508051612434576040516368d2bf6b60e11b815260040160405180910390fd5b805181602001fd5b6001600160e01b031916630a85bd0160e11b1490505b949350505050565b60608161247e5750506040805180820190915260018152600360fc1b602082015290565b8160005b81156124a8578061249281614e73565b91506124a19050600a8361482e565b9150612482565b6000816001600160401b038111156124c2576124c26142a2565b6040519080825280601f01601f1916602001820160405280156124ec576020820181803683370190505b5090505b841561245257612501600183614797565b915061250e600a86614e8e565b612519906030614ea2565b60f81b81838151811061252e5761252e6147ae565b60200101906001600160f81b031916908160001a905350612550600a8661482e565b94506124f0565b604080516105c08082526105e082019092526060916020820181803683370190505090506000604051806105000160405280612dc38152602001612e578152602001612ed68152602001612f748152602001612dc38152602001612fbb815260200161305481526020016130a1815260200161323a81526020016132458152602001613250815260200161325b8152602001613266815260200161327c81526020016132a681526020016132d081526020016132e681526020016132fc81526020016133318152602001613350815260200161336a815260200161339381526020016133ae81526020016133bd81526020016133d88152602001613425815260200161346481526020016134a281526020016134db815260200161350f8152602001613541815260200161357381526020016135a581526020016135d9815260200161362b815260200161366481526020016136b481526020016137618152602001613781815260200161383a815250905060005b6028811015612703576126fb600682018383602881106126ee576126ee6147ae565b602002015185919061387a565b6001016126cc565b505090565b60408051608080825260a082019092526060916020820181803683370190505090506127388160006138d061387a565b6127468160016138e761387a565b6127548160026138f261387a565b61276281600361390761387a565b90565b60606105ae82600160001961391c565b61277d61406c565b61278561406c565b60208301805160ff8082168352606084019290925290600882901c166001600160401b038111156127b8576127b86142a2565b6040519080825280602002602001820160405280156127e1578160200160208202803683370190505b50602083015260ff601082901c81166080840152601882901c1660606000826001600160401b03811115612817576128176142a2565b604051908082528060200260200182016040528015612840578160200160208202803683370190505b5090506020870151602002604001870160005b8481101561287a578160208202602001840152815160200182019150600181019050612853565b505060408501525091949350505050565b600060078216600383811c168280826128ac575060001990506101006128ed565b82600114156128c757506001600160801b03905060806128ed565b82600214156128e257506001600160401b03905060406128ed565b5063ffffffff905060205b6001600587901c016000816001600160401b0381111561290f5761290f6142a2565b604051908082528060200260200182016040528015612938578160200160208202803683370190505b50905060208082019083028a03815b8b82101561295f578151815260209182019101612947565b505060608b015160808c015160209081029091010160005b6101008110156129bd5760208502830182845b828110156129a6578051841c8a1682526020918201910161298a565b5050506129b48e8e8b6116b7565b9b508501612977565b50999c9b505050505050505050505050565b606060008260600151905060006018846040015151901b60108560800151901b6008866020015151901b866060015151171717905060008160001b83604051602001612a1b9190614d30565b60408051601f1981840301815290829052612a399291602001614eba565b604051602081830303815290604052905060005b856040015151811015612ac7578186604001518281518110612a7157612a716147ae565b60200260200101515160001b87604001518381518110612a9357612a936147ae565b6020026020010151604051602001612aad93929190614ee0565b60408051601f198184030181529190529150600101612a4d565b50949350505050565b610dde81604051602401612ae4919061418c565b60408051601f198184030181529190526020810180516001600160e01b03166305f3bfab60e11b1790526139cd565b610dde81604051602401612b2991815260200190565b60408051601f198184030181529190526020810180516001600160e01b031663f5b1bba960e01b1790526139cd565b612b62828261133f565b610b6c57612b7a816001600160a01b031660146139ee565b612b858360206139ee565b604051602001612b96929190614f17565b60408051601f198184030181529082905262461bcd60e51b82526105ff9160040161418c565b612bc4611ec2565b54610100900460ff16612be95760405162461bcd60e51b81526004016105ff90614d66565b81612bf2611918565b6002019080519060200190612c08929190613fab565b5080612c12611918565b6003019080519060200190612c28929190613fab565b506001612c33611918565b555050565b600054610100900460ff16612c5f5760405162461bcd60e51b81526004016105ff90614da8565b61132e33612063565b6060815182604051602001611512929190614f86565b60006001612c8a611918565b5403919050565b6000818310612ca05781611911565b5090919050565b6000612cb1611918565b54905081612cd25760405163b562e8dd60e01b815260040160405180910390fd5b612cdf6000848385611a3c565b6001600160401b018202612cf1611918565b6001600160a01b0385166000908152600591909101602052604090208054919091019055612d25836001841460e11b611b32565b612d2d611918565b600083815260049190910160205260408120919091556001600160a01b0384169083830190839083906000805160206152b78339815191528180a4600183015b818114612d9357808360006000805160206152b7833981519152600080a4600101612d6d565b5081612db157604051622e076360e81b815260040160405180910390fd5b80612dba611918565b5550610aed9050565b603f1981018051601f1990920180516040516370a0823160e01b815291936000939290919084906001600160a01b038416906370a0823190612e099085906004016141c5565b602060405180830381865afa158015612e26573d6000803e3d6000fd5b505050506040513d601f19601f82011682018060405250810190612e4a9190614fd7565b9093525092949350505050565b6000806000602084039150815190506000816001600160a01b03166318160ddd6040518163ffffffff1660e01b8152600401602060405180830381865afa158015612ea6573d6000803e3d6000fd5b505050506040513d601f19601f82011682018060405250810190612eca9190614fd7565b90925250919392505050565b605f1981018051603f1983018051601f199094015160405163277166bf60e11b81529194600094939290919085906001600160a01b03851690634ee2cd7e90612f25908690869060040161423c565b602060405180830381865afa158015612f42573d6000803e3d6000fd5b505050506040513d601f19601f82011682018060405250810190612f669190614fd7565b909452509395945050505050565b603f1981018051601f199092018051604051630981b24d60e41b81526004810182905291936000939290919084906001600160a01b0384169063981b24d090602401612e09565b603f1981018051601f1990920180516040516331a9108f60e11b81526004810182905291936000939290919084906001600160a01b03841690636352211e90602401602060405180830381865afa15801561301a573d6000803e3d6000fd5b505050506040513d601f19601f8201168201806040525081019061303e9190614ff0565b6001600160a01b03169093525092949350505050565b605f1981018051603f1983018051601f1990940151604051627eeac760e11b81529194600094939290919085906001600160a01b0385169062fdd58e90612f25908690869060040161423c565b6000806000846001600160401b038111156130be576130be6142a2565b6040519080825280602002602001820160405280156130e7578160200160208202803683370190505b5090506000856001600160401b03811115613104576131046142a2565b60405190808252806020026020018201604052801561312d578160200160208202803683370190505b50604087028603601f1981018051909550919250602080890282019085015b8183101561316457825181526020928301920161314c565b5050602088028101602084015b81831015613189578251815260209283019201613171565b50506040516313849cfd60e21b8152600091506001600160a01b03831690634e1273f4906131bd908790879060040161500d565b600060405180830381865afa1580156131da573d6000803e3d6000fd5b505050506040513d6000823e601f3d908101601f191682016040526132029190810190615063565b9050846020820160208a0281015b8082101561322b578151835260209283019290910190613210565b50909998505050505050505050565b438152602001919050565b338152602001919050565b308152602001919050565b428152602001919050565b601f19810180516000919082612eca8287613b89565b603f1981018051601f19909201805190926000929183612e4a826132a0858a613b89565b90613bec565b603f1981018051601f19909201805190926000929183612e4a826132ca858a613b89565b90613c0b565b601f19810180516000919082612eca8287613c20565b601f19810180516000919082612eca8287613c6b565b6000602083028203805b83811015613326578051801561331d578252613326565b50602001613306565b506020019392505050565b605f1981018051156020028201603f1990810151909152018092915050565b601f1981018051603f199092018051909214909152919050565b6000602083028203805b8381101561332657805161338b5760008252613326565b602001613374565b601f1981018051603f19909201805192909211909152919050565b601f1981018051159052919050565b601f1981018051603f19909201805192909210909152919050565b6020828102820380516000928201835b85821080156133f8575060001983105b15613417575080516020909101906134108382613cab565b92506133e8565b505081526020019392505050565b6020828102820380516000928201835b8582108015613445575060001983105b156134175750805160209091019061345d8382613cc8565b9250613435565b6020828102820380516000928201835b85821080156134835750826000105b156134175750805160209091019061349b8382613cf7565b9250613474565b600060208302820380516000602083015b8581101561341757805183019150828210156134ce57600080fd5b90915081906020016134b3565b600060208302820380516000602083015b8581101561341757805191508161350257600080fd5b91819004916020016134ec565b6020828102820380516000928201835b858210156134175750805160209091019061353a81846151d7565b925061351f565b6020828102820380516000928201835b858210156134175750805182811115613568578092505b602082019150613551565b6020828102820380516000928201835b85821015613417575080518281101561359a578092505b602082019150613583565b600060208302820380516000602083015b858110156134175780519150816135cc57600080fd5b91819006916020016135b6565b60006020830282038051600080602084015b8681101561361c57831561361457805192508284029150828483041461361057600080fd5b8193505b6020016135eb565b50505081526020019392505050565b600060208302820380516000602083015b85811015613417578051830391508282111561365757600080fd5b909150819060200161363c565b819003603f1981018051601f199092018051848252604051632235a18160e21b8152919360009392909190859085906001600160a01b038516906388d6860490612f2590869086906004016151e3565b819003605f1981018051603f19830151601f19909301805185825260405163caa0eb3b60e01b815291946000949392909190869086906001600160a01b0386169063caa0eb3b9061370d90879087908790600401615207565b602060405180830381865afa15801561372a573d6000803e3d6000fd5b505050506040513d601f19601f8201168201806040525081019061374e9190614fd7565b8652505060209093019695505050505050565b603f1981018051601f19909201805190926000929183612e4a8383613d0d565b6000600783901c6003600585901c16601f85168380826001600160401b038111156137ae576137ae6142a2565b6040519080825280602002602001820160405280156137d7578160200160208202803683370190505b509050600060206001850102880392506020840283018360005b82821015613813578151816020018601526020820191506020810190506137f1565b5050519050600061382683838989613d6c565b845250506020909101979650505050505050565b603f1981018051601f199092018051909260009291600f80871691600488901c909116908561386b85858585613e62565b90955250949695505050505050565b8251602083029081106138c25760405162461bcd60e51b815260206004820152601060248201526f464e5f505452535f4f564552464c4f5760801b60448201526064016105ff565b506020918202929092010152565b6000806138db61084f565b83525050602001919050565b6000806138db612c7e565b601f19810180516000919082612eca82613ebe565b601f19810180516000919082612eca82613f03565b6060833b8061393b575050604080516020810190915260008152611911565b80841115613959575050604080516020810190915260008152611911565b8383101561398b5760405163162544fd60e11b81526004810182905260248101859052604481018490526064016105ff565b83830384820360008282106139a057826139a2565b815b60408051603f8301601f19168101909152818152955090508087602087018a3c505050509392505050565b80516a636f6e736f6c652e6c6f67602083016000808483855afa5050505050565b606060006139fd8360026147f9565b613a08906002614ea2565b6001600160401b03811115613a1f57613a1f6142a2565b6040519080825280601f01601f191660200182016040528015613a49576020820181803683370190505b509050600360fc1b81600081518110613a6457613a646147ae565b60200101906001600160f81b031916908160001a905350600f60fb1b81600181518110613a9357613a936147ae565b60200101906001600160f81b031916908160001a9053506000613ab78460026147f9565b613ac2906001614ea2565b90505b6001811115613b3a576f181899199a1a9b1b9c1cb0b131b232b360811b85600f1660108110613af657613af66147ae565b1a60f81b828281518110613b0c57613b0c6147ae565b60200101906001600160f81b031916908160001a90535060049490941c93613b338161522e565b9050613ac5565b5083156119115760405162461bcd60e51b815260206004820181905260248201527f537472696e67733a20686578206c656e67746820696e73756666696369656e7460448201526064016105ff565b6000808260121415613b9e57839150506105ae565b8260121115613bca57506012829003613bb881600a6151d7565b613bc290856147f9565b9150506105ae565b506011198201613bdb81600a6151d7565b613bc2908561482e565b5092915050565b600081613c01670de0b6b3a7640000856147f9565b611911919061482e565b6000670de0b6b3a7640000613c0183856147f9565b600081810b613c305750816105ae565b60008260000b1315613c5857613c4782600a615245565b613c5190846147f9565b90506105ae565b60ff600083900316613bdb81600a6151d7565b6000806012831415613c8057839150506105ae565b8260121115613c9a57506012829003613bdb81600a6151d7565b506011198201613bb881600a6151d7565b6000828201838110613cbd5780612452565b600019949350505050565b600082613cd7575060006105ae565b82820282848281613cea57613cea614818565b041415613cbd5780612452565b6000818311613d07576000611911565b50900390565b60008060015b60088111613d64576000613d278683613f17565b90506000613d358684613f17565b90506000613d438383613cf7565b9050613d53856001860383613f5c565b94505060019092019150613d139050565b509392505050565b835160009081908190819060015b60088111613e5457600092508287613d955750600019613d99565b5060005b60005b83811015613e3057613dc78c8281518110613db957613db96147ae565b602002602001015184613f17565b95508a8611613e195788613de657613ddf8683612c91565b9150613e10565b6001891415613df957613ddf8683613f9b565b600289148015613e07575084155b15613e10578591505b60019450613e28565b89613e28576000199150613e30565b600101613d9c565b5083613e3b57506000195b613e49866001840383613f5c565b955050600101613d7a565b509298975050505050505050565b6000826008811115613e865760405162461bcd60e51b81526004016105ff90615254565b6000855b85811015613eb25763ffffffff6020820290811b199890981685891b17979150600101613e8a565b50959695505050505050565b60006001600160401b036040613ed2611918565b6005016000856001600160a01b03166001600160a01b0316815260200190815260200160002054901c169050919050565b60006001600160401b036080613ed2611918565b6000816008811115613f3b5760405162461bcd60e51b81526004016105ff90615254565b82613f495760009150613be5565b5050600019016020021c63ffffffff1690565b6000826008811115613f805760405162461bcd60e51b81526004016105ff90615254565b505063ffffffff602090920291821b199290921691901b1790565b600081831015612ca05781611911565b828054613fb7906147c4565b90600052602060002090601f016020900481019282613fd9576000855561401f565b82601f10613ff257805160ff191683800117855561401f565b8280016001018555821561401f579182015b8281111561401f578251825591602001919060010190614004565b5061402b92915061409b565b5090565b6040518060e00160405280600081526020016000815260200160008152602001600081526020016000815260200160008152602001600081525090565b6040518060a0016040528060008152602001606081526020016060815260200160608152602001600081525090565b5b8082111561402b576000815560010161409c565b6001600160e01b031981168114610dde57600080fd5b6000602082840312156140d857600080fd5b8135611911816140b0565b6001600160a01b0381168114610dde57600080fd5b8035614103816140e3565b919050565b6000806040838503121561411b57600080fd5b8235614126816140e3565b946020939093013593505050565b60005b8381101561414f578181015183820152602001614137565b838111156114c85750506000910152565b60008151808452614178816020860160208601614134565b601f01601f19169290920160200192915050565b6020815260006119116020830184614160565b6000602082840312156141b157600080fd5b5035919050565b6001600160a01b03169052565b6001600160a01b0391909116815260200190565b6000806000606084860312156141ee57600080fd5b83356141f9816140e3565b92506020840135614209816140e3565b929592945050506040919091013590565b6000806040838503121561422d57600080fd5b50508035926020909101359150565b6001600160a01b03929092168252602082015260400190565b6000806040838503121561426857600080fd5b82359150602083013561427a816140e3565b809150509250929050565b60006020828403121561429757600080fd5b8135611911816140e3565b634e487b7160e01b600052604160045260246000fd5b604080519081016001600160401b03811182821017156142da576142da6142a2565b60405290565b60405161014081016001600160401b03811182821017156142da576142da6142a2565b604051601f8201601f191681016001600160401b038111828210171561432b5761432b6142a2565b604052919050565b60006001600160401b0382111561434c5761434c6142a2565b50601f01601f191660200190565b600082601f83011261436b57600080fd5b813561437e61437982614333565b614303565b81815284602083860101111561439357600080fd5b816020850160208301376000918101602001919091529392505050565b60006001600160401b038211156143c9576143c96142a2565b5060051b60200190565b600082601f8301126143e457600080fd5b813560206143f4614379836143b0565b82815260059290921b8401810191818101908684111561441357600080fd5b8286015b8481101561442e5780358352918301918301614417565b509695505050505050565b60006040828403121561444b57600080fd5b6144536142b8565b905081356001600160401b038082111561446c57600080fd5b818401915084601f83011261448057600080fd5b81356020614490614379836143b0565b82815260059290921b840181019181810190888411156144af57600080fd5b8286015b848110156144e7578035868111156144cb5760008081fd5b6144d98b86838b010161435a565b8452509183019183016144b3565b50865250858101359350828411156144fe57600080fd5b61450a878588016143d3565b818601525050505092915050565b6000806040838503121561452b57600080fd5b82356001600160401b038082111561454257600080fd5b90840190610140828703121561455757600080fd5b61455f6142e0565b82358281111561456e57600080fd5b61457a8882860161435a565b82525060208301358281111561458f57600080fd5b61459b8882860161435a565b6020830152506040830135828111156145b357600080fd5b6145bf8882860161435a565b604083015250606083013560608201526145db608084016140f8565b60808201526145ec60a084016140f8565b60a08201526145fd60c084016140f8565b60c082015260e083013560e082015261010061461a8185016140f8565b90820152610120838101358381111561463257600080fd5b61463e89828701614439565b828401525050809450505050614656602084016140f8565b90509250929050565b6000806000806080858703121561467557600080fd5b8435614680816140e3565b966020860135965060408601359560600135945092505050565b8015158114610dde57600080fd5b600080604083850312156146bb57600080fd5b82356146c6816140e3565b9150602083013561427a8161469a565b600060608284031215611ffe57600080fd5b600080600080608085870312156146fe57600080fd5b8435614709816140e3565b93506020850135614719816140e3565b92506040850135915060608501356001600160401b0381111561473b57600080fd5b6147478782880161435a565b91505092959194509250565b6000806040838503121561476657600080fd5b8235614771816140e3565b9150602083013561427a816140e3565b634e487b7160e01b600052601160045260246000fd5b6000828210156147a9576147a9614781565b500390565b634e487b7160e01b600052603260045260246000fd5b600181811c908216806147d857607f821691505b60208210811415611ffe57634e487b7160e01b600052602260045260246000fd5b600081600019048311821515161561481357614813614781565b500290565b634e487b7160e01b600052601260045260246000fd5b60008261483d5761483d614818565b500490565b6001600160a01b039390931683526020830191909152604082015260600190565b60006020828403121561487557600080fd5b81516119118161469a565b600081518084526020808501808196508360051b8101915082860160005b858110156148c85782840389526148b6848351614160565b9885019893509084019060010161489e565b5091979650505050505050565b600081518084526020808501945080840160005b83811015614905578151875295820195908201906001016148e9565b509495945050505050565b60008151604084526149256040850182614880565b90506020830151848203602086015261493e82826148d5565b95945050505050565b6001600160a01b0384168152606060208083018290526000919061496d84830187614910565b84810360408681019190915286518083528388019284019060005b818110156149de578451805184528681015187850152848101518585015287810151888501526080808201519085015260a0808201519085015260c090810151908401529385019360e090920191600101614988565b50909a9950505050505050505050565b600060208284031215614a0057600080fd5b81516001600160401b03811115614a1657600080fd5b8201601f81018413614a2757600080fd5b8051614a3561437982614333565b818152856020838501011115614a4a57600080fd5b61493e826020830160208601614134565b6040815260008351610140806040850152614a7a610180850183614160565b91506020860151603f1980868503016060870152614a988483614160565b93506040880151915080868503016080870152614ab58483614160565b9350606088015160a087015260808801519150614ad560c08701836141b8565b60a08801519150614ae960e08701836141b8565b60c08801519150610100614aff818801846141b8565b60e089015192506101208381890152818a01519350614b20858901856141b8565b890151878603909201610160880152509150614b3e90508282614910565b9250505061191160208301846141b8565b600060608284031215614b6157600080fd5b604051606081016001600160401b0381118282101715614b8357614b836142a2565b80604052508235815260208301356020820152604083013560408201528091505092915050565b60008151614bbc818560208601614134565b9290920192915050565b600080845481600182811c915080831680614be257607f831692505b6020808410821415614c0257634e487b7160e01b86526022600452602486fd5b818015614c165760018114614c2757614c54565b60ff19861689528489019650614c54565b60008b81526020902060005b86811015614c4c5781548b820152908501908301614c33565b505084890196505b50505050505061493e614c77614c7183602f60f81b815260010190565b86614baa565b64173539b7b760d91b815260050190565b60008351614c9a818460208801614134565b835190830190614cae818360208801614134565b01949350505050565b60208152815160208201526000602083015160a06040840152614cdd60c08401826148d5565b90506040840151601f1980858403016060860152614cfb8383614880565b9250606086015191508085840301608086015250614d1982826148d5565b915050608084015160a08401528091505092915050565b815160009082906020808601845b83811015614d5a57815185529382019390820190600101614d3e565b50929695505050505050565b6020808252603490820152600080516020615277833981519152604082015273206973206e6f7420696e697469616c697a696e6760601b606082015260800190565b6020808252602b908201527f496e697469616c697a61626c653a20636f6e7472616374206973206e6f74206960408201526a6e697469616c697a696e6760a81b606082015260800190565b6000815260008251614e0c816001850160208701614134565b9190910160010192915050565b6001600160a01b0385811682528416602082015260408101839052608060608201819052600090614e4c90830184614160565b9695505050505050565b600060208284031215614e6857600080fd5b8151611911816140b0565b6000600019821415614e8757614e87614781565b5060010190565b600082614e9d57614e9d614818565b500690565b60008219821115614eb557614eb5614781565b500190565b82815260008251614ed2816020850160208701614134565b919091016020019392505050565b60008451614ef2818460208901614134565b82018481528351614f0a816020808501908801614134565b0160200195945050505050565b76020b1b1b2b9b9a1b7b73a3937b61d1030b1b1b7bab73a1604d1b815260008351614f49816017850160208801614134565b7001034b99036b4b9b9b4b733903937b6329607d1b6017918401918201528351614f7a816028840160208801614134565b01602801949350505050565b606360f81b815260e083901b6001600160e01b03191660018201526880600e6000396000f360b81b60058201528151600090614fc981600e850160208701614134565b91909101600e019392505050565b600060208284031215614fe957600080fd5b5051919050565b60006020828403121561500257600080fd5b8151611911816140e3565b604080825283519082018190526000906020906060840190828701845b8281101561504f5781516001600160a01b03168452928401929084019060010161502a565b50505083810382850152614e4c81866148d5565b6000602080838503121561507657600080fd5b82516001600160401b0381111561508c57600080fd5b8301601f8101851361509d57600080fd5b80516150ab614379826143b0565b81815260059190911b820183019083810190878311156150ca57600080fd5b928401925b828410156150e8578351825292840192908401906150cf565b979650505050505050565b600181815b8085111561512e57816000190482111561511457615114614781565b8085161561512157918102915b93841c93908002906150f8565b509250929050565b600082615145575060016105ae565b81615152575060006105ae565b816001811461516857600281146151725761518e565b60019150506105ae565b60ff84111561518357615183614781565b50506001821b6105ae565b5060208310610133831016604e8410600b84101617156151b1575081810a6105ae565b6151bb83836150f3565b80600019048211156151cf576151cf614781565b029392505050565b60006119118383615136565b6001600160a01b0383168152604060208201819052600090612452908301846148d5565b60018060a01b038416815282602082015260606040820152600061493e60608301846148d5565b60008161523d5761523d614781565b506000190190565b600061191160ff841683615136565b60208082526008908201526726a0ac2faa24a2a960c11b60408201526060019056fe455243373231415f5f496e697469616c697a61626c653a20636f6e74726163745ed6f179f99b86220df7cbd206c7334b24cb795a85808301007ee7b2ff91a820ddf252ad1be2c89b69c2b068fc378daa952ba7f163c4a11628f55a4df523b3ef637062c33901e7d06867eef333d6cabd2aa851e91f8ce674ab4dba45bdc99c70a26469706673582212209d5d9e592f2b8bb587fbcb9c497ee8a310b9da1e95a550e0470b472428d5bb5364736f6c634300080a0033",
  "linkReferences": {},
  "deployedLinkReferences": {}
}